{
  "_format": "hh-sol-artifact-1",
  "contractName": "BaseERC20",
  "sourceName": "contracts/erc20/BaseERC20.sol",
  "abi": [
    {
      "inputs": [
        {
          "internalType": "string",
          "name": "name",
          "type": "string"
        },
        {
          "internalType": "string",
          "name": "symbol",
          "type": "string"
        },
        {
          "internalType": "uint256",
          "name": "amount",
          "type": "uint256"
        },
        {
          "internalType": "address",
          "name": "owner",
          "type": "address"
        },
        {
          "internalType": "address",
          "name": "authority",
          "type": "address"
        }
      ],
      "stateMutability": "nonpayable",
      "type": "constructor"
    },
    {
      "inputs": [
        {
          "internalType": "address",
          "name": "authority",
          "type": "address"
        }
      ],
      "name": "AccessManagedInvalidAuthority",
      "type": "error"
    },
    {
      "inputs": [
        {
          "internalType": "address",
          "name": "caller",
          "type": "address"
        },
        {
          "internalType": "uint32",
          "name": "delay",
          "type": "uint32"
        }
      ],
      "name": "AccessManagedRequiredDelay",
      "type": "error"
    },
    {
      "inputs": [
        {
          "internalType": "address",
          "name": "caller",
          "type": "address"
        }
      ],
      "name": "AccessManagedUnauthorized",
      "type": "error"
    },
    {
      "inputs": [],
      "name": "ECDSAInvalidSignature",
      "type": "error"
    },
    {
      "inputs": [
        {
          "internalType": "uint256",
          "name": "length",
          "type": "uint256"
        }
      ],
      "name": "ECDSAInvalidSignatureLength",
      "type": "error"
    },
    {
      "inputs": [
        {
          "internalType": "bytes32",
          "name": "s",
          "type": "bytes32"
        }
      ],
      "name": "ECDSAInvalidSignatureS",
      "type": "error"
    },
    {
      "inputs": [
        {
          "internalType": "address",
          "name": "spender",
          "type": "address"
        },
        {
          "internalType": "uint256",
          "name": "allowance",
          "type": "uint256"
        },
        {
          "internalType": "uint256",
          "name": "needed",
          "type": "uint256"
        }
      ],
      "name": "ERC20InsufficientAllowance",
      "type": "error"
    },
    {
      "inputs": [
        {
          "internalType": "address",
          "name": "sender",
          "type": "address"
        },
        {
          "internalType": "uint256",
          "name": "balance",
          "type": "uint256"
        },
        {
          "internalType": "uint256",
          "name": "needed",
          "type": "uint256"
        }
      ],
      "name": "ERC20InsufficientBalance",
      "type": "error"
    },
    {
      "inputs": [
        {
          "internalType": "address",
          "name": "approver",
          "type": "address"
        }
      ],
      "name": "ERC20InvalidApprover",
      "type": "error"
    },
    {
      "inputs": [
        {
          "internalType": "address",
          "name": "receiver",
          "type": "address"
        }
      ],
      "name": "ERC20InvalidReceiver",
      "type": "error"
    },
    {
      "inputs": [
        {
          "internalType": "address",
          "name": "sender",
          "type": "address"
        }
      ],
      "name": "ERC20InvalidSender",
      "type": "error"
    },
    {
      "inputs": [
        {
          "internalType": "address",
          "name": "spender",
          "type": "address"
        }
      ],
      "name": "ERC20InvalidSpender",
      "type": "error"
    },
    {
      "inputs": [
        {
          "internalType": "uint256",
          "name": "deadline",
          "type": "uint256"
        }
      ],
      "name": "ERC2612ExpiredSignature",
      "type": "error"
    },
    {
      "inputs": [
        {
          "internalType": "address",
          "name": "signer",
          "type": "address"
        },
        {
          "internalType": "address",
          "name": "owner",
          "type": "address"
        }
      ],
      "name": "ERC2612InvalidSigner",
      "type": "error"
    },
    {
      "inputs": [],
      "name": "EnforcedPause",
      "type": "error"
    },
    {
      "inputs": [],
      "name": "ExpectedPause",
      "type": "error"
    },
    {
      "inputs": [
        {
          "internalType": "address",
          "name": "account",
          "type": "address"
        },
        {
          "internalType": "uint256",
          "name": "currentNonce",
          "type": "uint256"
        }
      ],
      "name": "InvalidAccountNonce",
      "type": "error"
    },
    {
      "inputs": [],
      "name": "InvalidShortString",
      "type": "error"
    },
    {
      "inputs": [
        {
          "internalType": "string",
          "name": "str",
          "type": "string"
        }
      ],
      "name": "StringTooLong",
      "type": "error"
    },
    {
      "anonymous": false,
      "inputs": [
        {
          "indexed": true,
          "internalType": "address",
          "name": "owner",
          "type": "address"
        },
        {
          "indexed": true,
          "internalType": "address",
          "name": "spender",
          "type": "address"
        },
        {
          "indexed": false,
          "internalType": "uint256",
          "name": "value",
          "type": "uint256"
        }
      ],
      "name": "Approval",
      "type": "event"
    },
    {
      "anonymous": false,
      "inputs": [
        {
          "indexed": false,
          "internalType": "address",
          "name": "authority",
          "type": "address"
        }
      ],
      "name": "AuthorityUpdated",
      "type": "event"
    },
    {
      "anonymous": false,
      "inputs": [],
      "name": "EIP712DomainChanged",
      "type": "event"
    },
    {
      "anonymous": false,
      "inputs": [
        {
          "indexed": false,
          "internalType": "address",
          "name": "account",
          "type": "address"
        }
      ],
      "name": "Paused",
      "type": "event"
    },
    {
      "anonymous": false,
      "inputs": [
        {
          "indexed": true,
          "internalType": "address",
          "name": "from",
          "type": "address"
        },
        {
          "indexed": true,
          "internalType": "address",
          "name": "to",
          "type": "address"
        },
        {
          "indexed": false,
          "internalType": "uint256",
          "name": "value",
          "type": "uint256"
        }
      ],
      "name": "Transfer",
      "type": "event"
    },
    {
      "anonymous": false,
      "inputs": [
        {
          "indexed": false,
          "internalType": "address",
          "name": "account",
          "type": "address"
        }
      ],
      "name": "Unpaused",
      "type": "event"
    },
    {
      "inputs": [],
      "name": "DOMAIN_SEPARATOR",
      "outputs": [
        {
          "internalType": "bytes32",
          "name": "",
          "type": "bytes32"
        }
      ],
      "stateMutability": "view",
      "type": "function"
    },
    {
      "inputs": [],
      "name": "accessAuthority",
      "outputs": [
        {
          "internalType": "address",
          "name": "",
          "type": "address"
        }
      ],
      "stateMutability": "view",
      "type": "function"
    },
    {
      "inputs": [
        {
          "internalType": "address",
          "name": "owner",
          "type": "address"
        },
        {
          "internalType": "address",
          "name": "spender",
          "type": "address"
        }
      ],
      "name": "allowance",
      "outputs": [
        {
          "internalType": "uint256",
          "name": "",
          "type": "uint256"
        }
      ],
      "stateMutability": "view",
      "type": "function"
    },
    {
      "inputs": [
        {
          "internalType": "address",
          "name": "spender",
          "type": "address"
        },
        {
          "internalType": "uint256",
          "name": "value",
          "type": "uint256"
        }
      ],
      "name": "approve",
      "outputs": [
        {
          "internalType": "bool",
          "name": "",
          "type": "bool"
        }
      ],
      "stateMutability": "nonpayable",
      "type": "function"
    },
    {
      "inputs": [],
      "name": "authority",
      "outputs": [
        {
          "internalType": "address",
          "name": "",
          "type": "address"
        }
      ],
      "stateMutability": "view",
      "type": "function"
    },
    {
      "inputs": [
        {
          "internalType": "address",
          "name": "account",
          "type": "address"
        }
      ],
      "name": "balanceOf",
      "outputs": [
        {
          "internalType": "uint256",
          "name": "",
          "type": "uint256"
        }
      ],
      "stateMutability": "view",
      "type": "function"
    },
    {
      "inputs": [
        {
          "internalType": "uint256",
          "name": "value",
          "type": "uint256"
        }
      ],
      "name": "burn",
      "outputs": [],
      "stateMutability": "nonpayable",
      "type": "function"
    },
    {
      "inputs": [
        {
          "internalType": "address",
          "name": "account",
          "type": "address"
        },
        {
          "internalType": "uint256",
          "name": "value",
          "type": "uint256"
        }
      ],
      "name": "burnFrom",
      "outputs": [],
      "stateMutability": "nonpayable",
      "type": "function"
    },
    {
      "inputs": [],
      "name": "decimals",
      "outputs": [
        {
          "internalType": "uint8",
          "name": "",
          "type": "uint8"
        }
      ],
      "stateMutability": "view",
      "type": "function"
    },
    {
      "inputs": [],
      "name": "eip712Domain",
      "outputs": [
        {
          "internalType": "bytes1",
          "name": "fields",
          "type": "bytes1"
        },
        {
          "internalType": "string",
          "name": "name",
          "type": "string"
        },
        {
          "internalType": "string",
          "name": "version",
          "type": "string"
        },
        {
          "internalType": "uint256",
          "name": "chainId",
          "type": "uint256"
        },
        {
          "internalType": "address",
          "name": "verifyingContract",
          "type": "address"
        },
        {
          "internalType": "bytes32",
          "name": "salt",
          "type": "bytes32"
        },
        {
          "internalType": "uint256[]",
          "name": "extensions",
          "type": "uint256[]"
        }
      ],
      "stateMutability": "view",
      "type": "function"
    },
    {
      "inputs": [],
      "name": "isConsumingScheduledOp",
      "outputs": [
        {
          "internalType": "bytes4",
          "name": "",
          "type": "bytes4"
        }
      ],
      "stateMutability": "view",
      "type": "function"
    },
    {
      "inputs": [
        {
          "internalType": "address",
          "name": "to",
          "type": "address"
        },
        {
          "internalType": "uint256",
          "name": "amount",
          "type": "uint256"
        }
      ],
      "name": "mint",
      "outputs": [],
      "stateMutability": "nonpayable",
      "type": "function"
    },
    {
      "inputs": [],
      "name": "name",
      "outputs": [
        {
          "internalType": "string",
          "name": "",
          "type": "string"
        }
      ],
      "stateMutability": "view",
      "type": "function"
    },
    {
      "inputs": [
        {
          "internalType": "address",
          "name": "owner",
          "type": "address"
        }
      ],
      "name": "nonces",
      "outputs": [
        {
          "internalType": "uint256",
          "name": "",
          "type": "uint256"
        }
      ],
      "stateMutability": "view",
      "type": "function"
    },
    {
      "inputs": [],
      "name": "pause",
      "outputs": [],
      "stateMutability": "nonpayable",
      "type": "function"
    },
    {
      "inputs": [],
      "name": "paused",
      "outputs": [
        {
          "internalType": "bool",
          "name": "",
          "type": "bool"
        }
      ],
      "stateMutability": "view",
      "type": "function"
    },
    {
      "inputs": [
        {
          "internalType": "address",
          "name": "owner",
          "type": "address"
        },
        {
          "internalType": "address",
          "name": "spender",
          "type": "address"
        },
        {
          "internalType": "uint256",
          "name": "value",
          "type": "uint256"
        },
        {
          "internalType": "uint256",
          "name": "deadline",
          "type": "uint256"
        },
        {
          "internalType": "uint8",
          "name": "v",
          "type": "uint8"
        },
        {
          "internalType": "bytes32",
          "name": "r",
          "type": "bytes32"
        },
        {
          "internalType": "bytes32",
          "name": "s",
          "type": "bytes32"
        }
      ],
      "name": "permit",
      "outputs": [],
      "stateMutability": "nonpayable",
      "type": "function"
    },
    {
      "inputs": [
        {
          "internalType": "address",
          "name": "newAuthority",
          "type": "address"
        }
      ],
      "name": "setAuthority",
      "outputs": [],
      "stateMutability": "nonpayable",
      "type": "function"
    },
    {
      "inputs": [],
      "name": "symbol",
      "outputs": [
        {
          "internalType": "string",
          "name": "",
          "type": "string"
        }
      ],
      "stateMutability": "view",
      "type": "function"
    },
    {
      "inputs": [],
      "name": "tokenOwner",
      "outputs": [
        {
          "internalType": "address",
          "name": "",
          "type": "address"
        }
      ],
      "stateMutability": "view",
      "type": "function"
    },
    {
      "inputs": [],
      "name": "totalSupply",
      "outputs": [
        {
          "internalType": "uint256",
          "name": "",
          "type": "uint256"
        }
      ],
      "stateMutability": "view",
      "type": "function"
    },
    {
      "inputs": [
        {
          "internalType": "address",
          "name": "to",
          "type": "address"
        },
        {
          "internalType": "uint256",
          "name": "value",
          "type": "uint256"
        }
      ],
      "name": "transfer",
      "outputs": [
        {
          "internalType": "bool",
          "name": "",
          "type": "bool"
        }
      ],
      "stateMutability": "nonpayable",
      "type": "function"
    },
    {
      "inputs": [
        {
          "internalType": "address",
          "name": "from",
          "type": "address"
        },
        {
          "internalType": "address",
          "name": "to",
          "type": "address"
        },
        {
          "internalType": "uint256",
          "name": "value",
          "type": "uint256"
        }
      ],
      "name": "transferFrom",
      "outputs": [
        {
          "internalType": "bool",
          "name": "",
          "type": "bool"
        }
      ],
      "stateMutability": "nonpayable",
      "type": "function"
    },
    {
      "inputs": [],
      "name": "unpause",
      "outputs": [],
      "stateMutability": "nonpayable",
      "type": "function"
    }
  ],
  "bytecode": "0x6101806040523480156200001257600080fd5b5060405162001fd138038062001fd1833981016040819052620000359162000525565b6040805180820190915260018152603160f81b60208201528590819083828860036200006283826200064e565b5060046200007182826200064e565b50506005805460ff191690555062000089816200019e565b5062000097826006620001fa565b61012052620000a8816007620001fa565b61014052815160208084019190912060e052815190820120610100524660a0526200013660e05161010051604080517f8b73c3c69bb8fe3d512ecc4cf759cc79239f7b179b0ffacaa9a75d522b39400f60208201529081019290925260608201524660808201523060a082015260009060c00160405160208183030381529060405280519060200120905090565b60805250503060c052506001600160a01b0382811661016052600980546001600160a01b031916918316919091179055620001933362000174601290565b6200018190600a6200082d565b6200018d908662000845565b62000233565b5050505050620008cf565b60058054610100600160a81b0319166101006001600160a01b038416908102919091179091556040519081527f2f658b440c35314f52658ea8a740e05b284cdc84dc9ae01e891f21b8933e7cad9060200160405180910390a150565b60006020835110156200021a57620002128362000275565b90506200022d565b816200022784826200064e565b5060ff90505b92915050565b6001600160a01b038216620002635760405163ec442f0560e01b8152600060048201526024015b60405180910390fd5b6200027160008383620002b8565b5050565b600080829050601f81511115620002a3578260405163305a27a960e01b81526004016200025a91906200085f565b8051620002b08262000894565b179392505050565b620002c5838383620002ca565b505050565b620002d4620002e1565b620002c583838362000308565b60055460ff1615620003065760405163d93c066560e01b815260040160405180910390fd5b565b6001600160a01b038316620003375780600260008282546200032b9190620008b9565b90915550620003ab9050565b6001600160a01b038316600090815260208190526040902054818110156200038c5760405163391434e360e21b81526001600160a01b038516600482015260248101829052604481018390526064016200025a565b6001600160a01b03841660009081526020819052604090209082900390555b6001600160a01b038216620003c957600280548290039055620003e8565b6001600160a01b03821660009081526020819052604090208054820190555b816001600160a01b0316836001600160a01b03167fddf252ad1be2c89b69c2b068fc378daa952ba7f163c4a11628f55a4df523b3ef836040516200042e91815260200190565b60405180910390a3505050565b634e487b7160e01b600052604160045260246000fd5b60005b838110156200046e57818101518382015260200162000454565b50506000910152565b600082601f8301126200048957600080fd5b81516001600160401b0380821115620004a657620004a66200043b565b604051601f8301601f19908116603f01168101908282118183101715620004d157620004d16200043b565b81604052838152866020858801011115620004eb57600080fd5b620004fe84602083016020890162000451565b9695505050505050565b80516001600160a01b03811681146200052057600080fd5b919050565b600080600080600060a086880312156200053e57600080fd5b85516001600160401b03808211156200055657600080fd5b6200056489838a0162000477565b965060208801519150808211156200057b57600080fd5b506200058a8882890162000477565b94505060408601519250620005a26060870162000508565b9150620005b26080870162000508565b90509295509295909350565b600181811c90821680620005d357607f821691505b602082108103620005f457634e487b7160e01b600052602260045260246000fd5b50919050565b601f821115620002c5576000816000526020600020601f850160051c81016020861015620006255750805b601f850160051c820191505b81811015620006465782815560010162000631565b505050505050565b81516001600160401b038111156200066a576200066a6200043b565b62000682816200067b8454620005be565b84620005fa565b602080601f831160018114620006ba5760008415620006a15750858301515b600019600386901b1c1916600185901b17855562000646565b600085815260208120601f198616915b82811015620006eb57888601518255948401946001909101908401620006ca565b50858210156200070a5787850151600019600388901b60f8161c191681555b5050505050600190811b01905550565b634e487b7160e01b600052601160045260246000fd5b600181815b80851115620007715781600019048211156200075557620007556200071a565b808516156200076357918102915b93841c939080029062000735565b509250929050565b6000826200078a575060016200022d565b8162000799575060006200022d565b8160018114620007b25760028114620007bd57620007dd565b60019150506200022d565b60ff841115620007d157620007d16200071a565b50506001821b6200022d565b5060208310610133831016604e8410600b841016171562000802575081810a6200022d565b6200080e838362000730565b80600019048211156200082557620008256200071a565b029392505050565b60006200083e60ff84168362000779565b9392505050565b80820281158282048414176200022d576200022d6200071a565b60208152600082518060208401526200088081604085016020870162000451565b601f01601f19169190910160400192915050565b80516020808301519190811015620005f45760001960209190910360031b1b16919050565b808201808211156200022d576200022d6200071a565b60805160a05160c05160e0516101005161012051610140516101605161169c6200093560003960006102c801526000610bea01526000610bbd015260006108f4015260006108cc01526000610827015260006108510152600061087b015261169c6000f3fe608060405234801561001057600080fd5b50600436106101585760003560e01c80637a9e5e4b116100c3578063a3e676101161007c578063a3e67610146102c3578063a9059cbb14610302578063bf7e214f14610315578063d505accf1461032b578063dd62ed3e1461033e578063ddb27bf01461037757600080fd5b80637a9e5e4b146102515780637ecebe00146102645780638456cb591461027757806384b0196e1461027f5780638fb360371461029a57806395d89b41146102bb57600080fd5b80633f4ba83a116101155780633f4ba83a146101da57806340c10f19146101e457806342966c68146101f75780635c975abb1461020a57806370a082311461021557806379cc67901461023e57600080fd5b806306fdde031461015d578063095ea7b31461017b57806318160ddd1461019e57806323b872dd146101b0578063313ce567146101c35780633644e515146101d2575b600080fd5b61016561038a565b60405161017291906112c5565b60405180910390f35b61018e6101893660046112fb565b61041c565b6040519015158152602001610172565b6002545b604051908152602001610172565b61018e6101be366004611325565b610436565b60405160128152602001610172565b6101a261045a565b6101e2610469565b005b6101e26101f23660046112fb565b610480565b6101e2610205366004611361565b610497565b60055460ff1661018e565b6101a261022336600461137a565b6001600160a01b031660009081526020819052604090205490565b6101e261024c3660046112fb565b6104a4565b6101e261025f36600461137a565b6104b9565b6101a261027236600461137a565b610539565b6101e2610557565b610287610568565b6040516101729796959493929190611395565b6102a26105ae565b6040516001600160e01b03199091168152602001610172565b6101656105d4565b6102ea7f000000000000000000000000000000000000000000000000000000000000000081565b6040516001600160a01b039091168152602001610172565b61018e6103103660046112fb565b6105e3565b60055461010090046001600160a01b03166102ea565b6101e261033936600461142e565b6105f1565b6101a261034c3660046114a1565b6001600160a01b03918216600090815260016020908152604080832093909416825291909152205490565b6009546102ea906001600160a01b031681565b606060038054610399906114d4565b80601f01602080910402602001604051908101604052809291908181526020018280546103c5906114d4565b80156104125780601f106103e757610100808354040283529160200191610412565b820191906000526020600020905b8154815290600101906020018083116103f557829003601f168201915b5050505050905090565b60003361042a81858561072b565b60019150505b92915050565b60003361044485828561073d565b61044f8585856107bb565b506001949350505050565b600061046461081a565b905090565b610476335b600036610945565b61047e610a5f565b565b6104893361046e565b6104938282610ab1565b5050565b6104a13382610ae7565b50565b6104af82338361073d565b6104938282610ae7565b600554339061010090046001600160a01b031681146104fa5760405162d1953b60e31b81526001600160a01b03821660048201526024015b60405180910390fd5b816001600160a01b03163b600003610530576040516361798f2f60e11b81526001600160a01b03831660048201526024016104f1565b61049382610b1d565b6001600160a01b038116600090815260086020526040812054610430565b6105603361046e565b61047e610b79565b60006060806000806000606061057c610bb6565b610584610be3565b60408051600080825260208201909252600f60f81b9b939a50919850469750309650945092509050565b600554600090600160a81b900460ff166105c85750600090565b50638fb3603760e01b90565b606060048054610399906114d4565b60003361042a8185856107bb565b834211156106155760405163313c898160e11b8152600481018590526024016104f1565b60007f6e71edae12b1b97f4d1f60370fef10105fa2faae0126114a169c64845d6126c98888886106628c6001600160a01b0316600090815260086020526040902080546001810190915590565b6040805160208101969096526001600160a01b0394851690860152929091166060840152608083015260a082015260c0810186905260e00160405160208183030381529060405280519060200120905060006106bd82610c10565b905060006106cd82878787610c3d565b9050896001600160a01b0316816001600160a01b031614610714576040516325c0072360e11b81526001600160a01b0380831660048301528b1660248201526044016104f1565b61071f8a8a8a61072b565b50505050505050505050565b6107388383836001610c6b565b505050565b6001600160a01b0383811660009081526001602090815260408083209386168352929052205460001981146107b557818110156107a657604051637dc7a0d960e11b81526001600160a01b038416600482015260248101829052604481018390526064016104f1565b6107b584848484036000610c6b565b50505050565b6001600160a01b0383166107e557604051634b637e8f60e11b8152600060048201526024016104f1565b6001600160a01b03821661080f5760405163ec442f0560e01b8152600060048201526024016104f1565b610738838383610d40565b6000306001600160a01b037f00000000000000000000000000000000000000000000000000000000000000001614801561087357507f000000000000000000000000000000000000000000000000000000000000000046145b1561089d57507f000000000000000000000000000000000000000000000000000000000000000090565b610464604080517f8b73c3c69bb8fe3d512ecc4cf759cc79239f7b179b0ffacaa9a75d522b39400f60208201527f0000000000000000000000000000000000000000000000000000000000000000918101919091527f000000000000000000000000000000000000000000000000000000000000000060608201524660808201523060a082015260009060c00160405160208183030381529060405280519060200120905090565b6000806109816109636005546001600160a01b036101009091041690565b863061097360046000898b61150e565b61097c91611538565b610d4b565b9150915081610a585763ffffffff811615610a35576005805460ff60a81b1916600160a81b1790556109c16005546001600160a01b036101009091041690565b6001600160a01b03166394c7d7ee8686866040518463ffffffff1660e01b81526004016109f093929190611568565b600060405180830381600087803b158015610a0a57600080fd5b505af1158015610a1e573d6000803e3d6000fd5b50506005805460ff60a81b1916905550610a589050565b60405162d1953b60e31b81526001600160a01b03861660048201526024016104f1565b5050505050565b610a67610e57565b6005805460ff191690557f5db9ee0a495bf2e6ff9c91a7834c1ba4fdd244a5e8aa4e537bd38aeae4b073aa335b6040516001600160a01b03909116815260200160405180910390a1565b6001600160a01b038216610adb5760405163ec442f0560e01b8152600060048201526024016104f1565b61049360008383610d40565b6001600160a01b038216610b1157604051634b637e8f60e11b8152600060048201526024016104f1565b61049382600083610d40565b60058054610100600160a81b0319166101006001600160a01b038416908102919091179091556040519081527f2f658b440c35314f52658ea8a740e05b284cdc84dc9ae01e891f21b8933e7cad9060200160405180910390a150565b610b81610e7a565b6005805460ff191660011790557f62e78cea01bee320cd4e420270b5ea74000d11b0c9f74754ebdbfc544b05a258610a943390565b60606104647f00000000000000000000000000000000000000000000000000000000000000006006610e9e565b60606104647f00000000000000000000000000000000000000000000000000000000000000006007610e9e565b6000610430610c1d61081a565b8360405161190160f01b8152600281019290925260228201526042902090565b600080600080610c4f88888888610f49565b925092509250610c5f8282611018565b50909695505050505050565b6001600160a01b038416610c955760405163e602df0560e01b8152600060048201526024016104f1565b6001600160a01b038316610cbf57604051634a1406b160e11b8152600060048201526024016104f1565b6001600160a01b03808516600090815260016020908152604080832093871683529290522082905580156107b557826001600160a01b0316846001600160a01b03167f8c5be1e5ebec7d5bd14f71427d1e84f3dd0314c0f7b2291e5b200ac8c7c3b92584604051610d3291815260200190565b60405180910390a350505050565b6107388383836110d1565b6040516001600160a01b03848116602483015283811660448301526001600160e01b03198316606483015260009182918291829189169060840160408051601f198184030181529181526020820180516001600160e01b031663b700961360e01b17905251610dba91906115a8565b600060405180830381855afa9150503d8060008114610df5576040519150601f19603f3d011682016040523d82523d6000602084013e610dfa565b606091505b50915091508115610e4c576040815110610e2c5780806020019051810190610e2291906115d4565b9094509250610e4c565b6020815110610e4c5780806020019051810190610e499190611614565b93505b505094509492505050565b60055460ff1661047e57604051638dfc202b60e01b815260040160405180910390fd5b60055460ff161561047e5760405163d93c066560e01b815260040160405180910390fd5b606060ff8314610eb857610eb1836110e4565b9050610430565b818054610ec4906114d4565b80601f0160208091040260200160405190810160405280929190818152602001828054610ef0906114d4565b8015610f3d5780601f10610f1257610100808354040283529160200191610f3d565b820191906000526020600020905b815481529060010190602001808311610f2057829003601f168201915b50505050509050610430565b600080807f7fffffffffffffffffffffffffffffff5d576e7357a4501ddfe92f46681b20a0841115610f84575060009150600390508261100e565b604080516000808252602082018084528a905260ff891692820192909252606081018790526080810186905260019060a0016020604051602081039080840390855afa158015610fd8573d6000803e3d6000fd5b5050604051601f1901519150506001600160a01b0381166110045750600092506001915082905061100e565b9250600091508190505b9450945094915050565b600082600381111561102c5761102c61162f565b03611035575050565b60018260038111156110495761104961162f565b036110675760405163f645eedf60e01b815260040160405180910390fd5b600282600381111561107b5761107b61162f565b0361109c5760405163fce698f760e01b8152600481018290526024016104f1565b60038260038111156110b0576110b061162f565b03610493576040516335e2f38360e21b8152600481018290526024016104f1565b6110d9610e7a565b610738838383611123565b606060006110f18361124d565b604080516020808252818301909252919250600091906020820181803683375050509182525060208101929092525090565b6001600160a01b03831661114e5780600260008282546111439190611645565b909155506111c09050565b6001600160a01b038316600090815260208190526040902054818110156111a15760405163391434e360e21b81526001600160a01b038516600482015260248101829052604481018390526064016104f1565b6001600160a01b03841660009081526020819052604090209082900390555b6001600160a01b0382166111dc576002805482900390556111fb565b6001600160a01b03821660009081526020819052604090208054820190555b816001600160a01b0316836001600160a01b03167fddf252ad1be2c89b69c2b068fc378daa952ba7f163c4a11628f55a4df523b3ef8360405161124091815260200190565b60405180910390a3505050565b600060ff8216601f81111561043057604051632cd44ac360e21b815260040160405180910390fd5b60005b83811015611290578181015183820152602001611278565b50506000910152565b600081518084526112b1816020860160208601611275565b601f01601f19169290920160200192915050565b6020815260006112d86020830184611299565b9392505050565b80356001600160a01b03811681146112f657600080fd5b919050565b6000806040838503121561130e57600080fd5b611317836112df565b946020939093013593505050565b60008060006060848603121561133a57600080fd5b611343846112df565b9250611351602085016112df565b9150604084013590509250925092565b60006020828403121561137357600080fd5b5035919050565b60006020828403121561138c57600080fd5b6112d8826112df565b60ff60f81b881681526000602060e060208401526113b660e084018a611299565b83810360408501526113c8818a611299565b606085018990526001600160a01b038816608086015260a0850187905284810360c08601528551808252602080880193509091019060005b8181101561141c57835183529284019291840191600101611400565b50909c9b505050505050505050505050565b600080600080600080600060e0888a03121561144957600080fd5b611452886112df565b9650611460602089016112df565b95506040880135945060608801359350608088013560ff8116811461148457600080fd5b9699959850939692959460a0840135945060c09093013592915050565b600080604083850312156114b457600080fd5b6114bd836112df565b91506114cb602084016112df565b90509250929050565b600181811c908216806114e857607f821691505b60208210810361150857634e487b7160e01b600052602260045260246000fd5b50919050565b6000808585111561151e57600080fd5b8386111561152b57600080fd5b5050820193919092039150565b6001600160e01b031981358181169160048510156115605780818660040360031b1b83161692505b505092915050565b6001600160a01b03841681526040602082018190528101829052818360608301376000818301606090810191909152601f909201601f1916010192915050565b600082516115ba818460208701611275565b9190910192915050565b805180151581146112f657600080fd5b600080604083850312156115e757600080fd5b6115f0836115c4565b9150602083015163ffffffff8116811461160957600080fd5b809150509250929050565b60006020828403121561162657600080fd5b6112d8826115c4565b634e487b7160e01b600052602160045260246000fd5b8082018082111561043057634e487b7160e01b600052601160045260246000fdfea2646970667358221220f806f7eba4dd271e0c387a6eda3b7771e114d214f97b5437337a89ed5e84193064736f6c63430008180033",
  "linkReferences": {},
  "deployedLinkReferences": {}
}